:100000000C9462000C948A000C948A000C948A0070
:100010000C948A000C948A000C948A000C948A0038
:100020000C948A000C948A000C948A000C940606A6
:100030000C948A000C948A000C948A000C948A0018
:100040000C94A1040C948A000C948A000C948A00ED
:100050000C948A000C948A000C948A000C948A00F8
:100060000C94EB040C948A0000000000240027008C
:100070002A0000000000250028002B0000000000DE
:1000800023002600290004040404040404040202DA
:100090000202020203030303030301020408102007
:1000A0004080010204081020010204081020000012
:1000B0000008000201000003040700000000000027
:1000C0000000AA0611241FBECFEFD8E0DEBFCDBFCF
:1000D00011E0A0E0B1E0E2E1F3E102C005900D9291
:1000E000AA38B107D9F722E0AAE8B1E001C01D9211
:1000F000A435B207E1F710E0C2E6D0E004C02197D2
:10010000FE010E948109C136D107C9F70E94CA06C3
:100110000C9487090C940000833081F028F481301E
:1001200099F08230A9F008958730A9F08830C9F09D
:100130008430B1F4809180008F7D03C08091800075
:100140008F7780938000089584B58F7784BD08955C
:1001500084B58F7DFBCF8091B0008F778093B00006
:1001600008958091B0008F7DF9CFCF93DF93282F32
:1001700030E0F901E255FF4F8491F901E656FF4F57
:10018000D491F901EA57FF4FC491CC23A1F081111A
:100190000E948C00EC2FF0E0EE0FFF1FE458FF4FA1
:1001A000A591B491EC91ED2381E090E009F480E019
:1001B000DF91CF91089580E090E0FACF1F93CF9325
:1001C000DF93282F30E0F901E255FF4F8491F901C8
:1001D000E656FF4FD491F901EA57FF4FC491CC2363
:1001E000A9F0162F81110E948C00EC2FF0E0EE0F89
:1001F000FF1FEE58FF4FA591B4918FB7F894EC9183
:10020000111108C0D095DE23DC938FBFDF91CF9111
:100210001F910895DE2BF8CFCF93DF9390E0FC0180
:10022000E656FF4F24918A579F4FFC018491882303
:10023000D1F090E0880F991FFC01E859FF4FA5917C
:10024000B491FC01EE58FF4FC591D491623071F426
:100250009FB7F8943C91822F809583238C93E881FB
:100260002E2B28839FBFDF91CF9108958FB7F894ED
:10027000EC912E2B2C938FBFF6CF3FB7F894809143
:10028000380290913902A0913A02B0913B0226B512
:10029000A89B05C02F3F19F00196A11DB11D3FBFBE
:1002A000BA2FA92F982F8827BC01CD01620F711D8D
:1002B000811D911D42E0660F771F881F991F4A9587
:1002C000D1F708958F929F92AF92BF92CF92DF9213
:1002D000EF92FF924B015C010E943D016B017C019A
:1002E0000E943D016C197D098E099F09683E73408B
:1002F00081059105A8F321E0821A9108A108B108AF
:1003000088EEC80E83E0D81EE11CF11C8114910414
:10031000A104B10429F7FF90EF90DF90CF90BF9038
:10032000AF909F908F900895AF92BF92CF92DF923F
:10033000EF92FF920F931F93CF93DF936C017B019A
:100340008B01040F151FEB015E01AE18BF08C0172B
:10035000D10759F06991D601ED91FC910190F0819E
:10036000E02DC6010995892B79F7C501DF91CF9161
:100370001F910F91FF90EF90DF90CF90BF90AF90C3
:1003800008951F93CF93DF93C1E0C093B4018823F6
:1003900099F1D091B8001091BA008091BC008A7B8D
:1003A0008093BC0060E082E10E94DE0060E083E1B7
:1003B0000E94DE001092F901C093FB011092FA0135
:1003C00061E082E10E94DE0061E083E10E94DE00E4
:1003D0008091B9008E7F8093B9008091B9008D7FA4
:1003E0008093B90088E48093B80085E48093BC00D2
:1003F0001093BA00D093B800DF91CF911F91089568
:100400002091D501260F3327331F21323105ECF41B
:100410002091F901FC0190E080E0243069F082E055
:100420000895A091D5012191AC014B545E4FA40FCA
:10043000B52FB11D2C930196861798F38091D501A5
:10044000680F6093D50180E0089581E008950895D4
:100450008FEF9FEF08958FEF9FEF08958091AE018A
:1004600090E09195819591090895CF92DF92EF9256
:10047000FF920F931F93CF93DF937C01CB018A01EF
:100480002091AD01222389F0EB016B01C40ED51E32
:10049000CC15DD0569F06991D701ED91FC910190D2
:1004A000F081E02DC7010995F3CF642F0E9400026F
:1004B000C801DF91CF911F910F91FF90EF90DF90D6
:1004C000CF900895CF93DF931F92CDB7DEB76983A6
:1004D0002091AD012223F9F02091AC01203258F097
:1004E00021E030E0FC013383228390E080E00F9034
:1004F000DF91CF9108958091AB01E82FF0E0E557AF
:10050000FE4F998190838F5F8093AB018093AC0104
:1005100081E090E0ECCF61E0CE0101960E94000204
:10052000F7CFCF92DF92EF92FF920F931F93CF936B
:10053000DF93FC01C48121E02093AD01C0938A01C7
:100540001092AB011092AC018385682B8CE392E092
:100550000E946202D091AC01D13208F092C00E9498
:100560003D016B017C018091F901811165C082E040
:100570008093F90181E08093FB018FEF8093F80174
:1005800010921D02D0931C02ABE8B1E0ECEFF1E059
:1005900080E0D81385C010921E0280911E02CC0FFD
:1005A000C82BC0931E028091FA01813009F07CC0F3
:1005B0001092FA010E943D016B017C0180911E02A4
:1005C0008093BB008091B0019091B101A091B201E4
:1005D000B091B301892B8A2B8B2B99F00E943D019E
:1005E0000091B0011091B1012091B2013091B3019D
:1005F0006C197D098E099F09061717072807390707
:10060000E0F18091BC0083FDD9CF85EC8093BC00E4
:100610000E943D016B017C018091F901823009F457
:1006200045C08091F8018F3F61F18091F8018032DF
:1006300041F18091F80125C08091B0019091B10104
:10064000A091B201B091B301892B8A2B8B2B09F4B5
:100650008ACF0E943D010091B0011091B10120911B
:10066000B2013091B3016C197D098E099F090617FB
:1006700017072807390708F076CF8091AF010E944D
:10068000C1011092AB011092AC011092AD01DF914B
:10069000CF911F910F91FF90EF90DF90CF90089531
:1006A0009D9191938F5F75CF85EEB0CF8091B00112
:1006B0009091B101A091B201B091B301892B8A2B25
:1006C0008B2B09F4A9CF0E943D010091B00110913C
:1006D000B1012091B2013091B3016C197D098E09ED
:1006E0009F09061717072807390708F095CFC5CFC8
:1006F000089590E080E00895CF93C82F0E94B50040
:1007000021E0892B09F420E080910001821769F033
:1007100064E170E080E090E00E9462018C2F0E9412
:10072000B50021E0892B09F420E02093000181E04D
:100730008227CF9108958F929F92AF92BF920F938D
:100740001F93CF93DF93CDB7DEB7A1970FB6F89481
:10075000DEBF0FBECDBF19A2423008F44AE08E01C1
:100760000F5D1F4F842E912CB12CA12CA50194015B
:100770000E945F09E62FB901CA01EA3044F5E05D45
:10078000D801EE938D01232B242B252B79F790E0B4
:1007900080E0109769F0FD0101900020E9F73197A2
:1007A000AF014A1B5B0BBD0188E492E00E949401FB
:1007B000A1960FB6F894DEBF0FBECDBFDF91CF91EB
:1007C0001F910F91BF90AF909F908F900895E95C1B
:1007D000D7CFFC0101900020E9F73197AF01481B0A
:1007E000590BBC0188E492E00C9494010F931F9381
:1007F000CF938C01C62F0E9491026C2F6460C801B8
:100800000E9491026C2F6B7FC8010E94910283ECC1
:1008100090E00197F1F7CF911F910F9108950F93F9
:100820001F93CF93DF938C01D62FC42F607F642B4F
:100830000E94F60380E1D89FB00111246C2BC801FF
:10084000DF91CF911F910F910C94F60340E061E08E
:1008500088E492E00E940F048BE39FE10197F1F797
:100860000895CF93DF93CDB7DEB728970FB6F894EE
:10087000DEBF0FBECDBF98E0E1E0F1E0DE011196F2
:1008800001900D929A95E1F7909150022FEF9111FE
:1008900021E030E0220F331F41E050E04C0F5D1F9C
:1008A000240F351FF9016081680F606840E088E41B
:1008B00092E028960FB6F894DEBF0FBECDBFDF9151
:1008C000CF910C940F0441E00E940F0481E090E06E
:1008D000089585ED8093BC008091B0019091B101A5
:1008E000A091B201B091B3010796A11DB11D23E003
:1008F000B695A795979587952A95D1F72091BC0035
:1009000024FD03C01092F90108954091B001509167
:10091000B1016091B2017091B301452B462B472B79
:1009200069F30097A105B10541F02AE22A95F1F794
:1009300000C00197A109B109E1CF8091AF010C94EA
:10094000C1011F920F920FB60F9211242F933F9364
:100950008F939F93AF93BF93809134029091350210
:10096000A0913602B09137023091330223E0230F79
:100970002D3758F50196A11DB11D209333028093A8
:10098000340290933502A0933602B09337028091DF
:10099000380290913902A0913A02B0913B0201963F
:1009A000A11DB11D8093380290933902A0933A02A1
:1009B000B0933B02BF91AF919F918F913F912F9147
:1009C0000F900FBE0F901F90189526E8230F0296E8
:1009D000A11DB11DD2CF1F920F920FB60F921124FD
:1009E0002F933F934F935F936F937F938F939F9337
:1009F000AF93BF93EF93FF938091B900887F8036C8
:100A000009F44AC0F0F5883209F4A5C018F5803120
:100A100009F499C0B8F4882309F4F5C0883009F4C2
:100A200092C0FF91EF91BF91AF919F918F917F9174
:100A30006F915F914F913F912F910F900FBE0F904B
:100A40001F901895883109F486C0803251F7809341
:100A5000F80114C0803409F49BC040F48033B9F32A
:100A60008833F9F68093F80185ECAEC0803509F43F
:100A700083C0883509F494C0883499F60E946904CB
:100A8000D0CF883909F48AC038F5883729F050F476
:100A9000883611F0803729F683E08093F9011092AF
:100AA000F70155C0883809F479C0803919F08038C9
:100AB00009F0B7CF8091F701803208F06FC0E09164
:100AC000F70181E08E0F8093F7018091BB00F0E089
:100AD000E952FE4F80833BC0803B39F0D0F4803A2E
:100AE00009F477C0883A09F09CCF84E08093F9013B
:100AF0001092D6011092D501F0E0E0E009958091C6
:100B0000D50181110FC081E08093D5011092B5010C
:100B100009C0803C09F4A8CF883C09F4A5CF883BE4
:100B200009F07FCFE091D60181E08E0F8093D6014E
:100B3000F0E0EB54FE4F80818093BB009091D60192
:100B40008091D50129C080911E028093BB0085EC65
:100B50008093BC0066CF90911D0280911C02981773
:100B600058F5E0911D0281E08E0F80931D02F0E0A8
:100B7000E450FE4F8081E9CFE0911D0281E08E0FAD
:100B800080931D028091BB00F0E0E450FE4F808313
:100B900090911D0280911C029817C8F285E8D8CF69
:100BA000E0911D0281E08E0F80931D028091BB00B9
:100BB000F0E0E450FE4F80838091FB0181115ECF15
:100BC00081E08093FA0184EA8093BC001092F901DD
:100BD00028CF85EC8093BC001092F9018091F70139
:100BE000803230F4E091F701F0E0E952FE4F1082DC
:100BF0006091F70170E087ED91E0F0E0E0E00995A9
:100C00001092F7010ECF1092F80138CF1F920F9279
:100C10000FB60F9211242F938F939F93AF93BF938F
:100C200080913202882309F48BC080911F02909139
:100C30002002A0912102B09122020196A11DB11DB6
:100C400080931F0290932002A0932102B09322026E
:100C500080911F0290912002A0912102B091220266
:100C6000883E9340A105B10508F46AC010921F02A6
:100C700010922002109221021092220280912302EF
:100C800090912402A0912502B09126020196A11D07
:100C9000B11D8093230290932402A0932502B09368
:100CA00026028091230290912402A0912502B09106
:100CB0002602CC97A105B10508F442C01092230288
:100CC000109224021092250210922602809127028F
:100CD00090912802A0912902B0912A020196A11DAB
:100CE000B11D8093270290932802A0932902B0930C
:100CF0002A028091270290912802A0912902B091A6
:100D00002A02CC97A105B105D8F0109227021092C3
:100D100028021092290210922A0280912B029091AF
:100D20002C02A0912D02B0912E020196A11DB11DA1
:100D300080932B0290932C02A0932D02B0932E024D
:100D4000BF91AF919F918F912F910F900FBE0F90F8
:100D50001F901895ECE3F2E01382128288EE93E084
:100D6000A0E0B0E084839583A683B7838DE091E013
:100D700091838083E8E4F2E0138212828FE191E0B4
:100D80009183808387E2848380E1818782E0828708
:100D900013860895789484B5826084BD84B581609B
:100DA00084BD85B5826085BD85B5816085BD809136
:100DB0006E00816080936E001092810080918100AE
:100DC00082608093810080918100816080938100A6
:100DD000809180008160809380008091B100846068
:100DE0008093B1008091B00081608093B0008091C9
:100DF0007A00846080937A0080917A008260809388
:100E00007A0080917A00816080937A0080917A00E4
:100E1000806880937A001092C10062E082E00E94B4
:100E20000C0162E083E00E940C0161E08CE00E9412
:100E30000C0161E08DE00E940C0161E08BE00E94FA
:100E40000C0161E08AE00E940C0162E084E00E94F3
:100E50000C0180914D02886080934D0212E0109346
:100E6000500262E370E080E090E00E9462016091D5
:100E7000530288E492E00E94910268EE73E080E001
:100E800090E00E94620160E388E492E00E94F60331
:100E9000CBE4D6E4CE010197F1F760E388E492E079
:100EA0000E94F6032197F1F760E388E492E00E9444
:100EB000F60383E592E00197F1F760E288E492E0BF
:100EC0000E94F60360914D02606240E088E492E087
:100ED0000E940F0484E080934E0240E06CE088E4BE
:100EE00092E00E940F040E94260410934F0240E0FB
:100EF00066E088E492E00E940F0440E062E088E44B
:100F000092E00E940F048BE39FE10197F1F787E2E3
:100F100091E00E94E90380E00E94310488E391E0BF
:100F20000E94E90368EE73E080E090E00E946201B5
:100F30000E94260489E491E00E94E90380E00E9477
:100F400031048AE591E00E94E90390E080E00E948C
:100F5000490990E09093300280932F02019709F0A5
:100F600086C161E08BE00E94DE0060E08AE00E94C2
:100F7000DE00F8941092800010928100109285009B
:100F8000109284008FEC97E0909389008093880002
:100F9000809181008A608093810080916F008260DF
:100FA00080936F007894772473948AE0C82ED12CB4
:100FB000E12CF12C94E6892E912CA12CB12C00E08F
:100FC00010E06624639482E090E00E947C03882312
:100FD000E9F080913202872580933202209132021B
:100FE00080912F0290913002222309F446C1609231
:100FF000310261E0019709F460E08CE00E94DE00BC
:101000000E94260486E691E00E94E90383E090E0D6
:101010000E947C038823A9F110922B0210922C02CB
:1010200010922D0210922E02109227021092280286
:101030001092290210922A02109223021092240286
:10104000109225021092260210921F021092200286
:10105000109221021092220210923202109231025A
:1010600060E08CE00E94DE000E94260489E491E0AA
:101070000E94E90380E00E9431048AE591E00E9429
:10108000E90380913202811105C0809131028823E9
:1010900009F4A4C082E00E94310460912B02709197
:1010A0002C0280912D0290912E02A70196010E94A0
:1010B0005F09CA01B9014AE00E949B0360912B02BB
:1010C00070912C0280912D0290912E02A701960121
:1010D0000E945F094AE00E949B0387E891E00E941A
:1010E000E903609127027091280280912902909172
:1010F0002A02A70196010E945F09CA01B9014AE0CC
:101100000E949B036091270270912802809129021E
:1011100090912A02A70196010E945F094AE00E946D
:101120009B0387E891E00E94E9036091230270919C
:1011300024028091250290912602A70196010E9427
:101140005F09CA01B9014AE00E949B036091230232
:10115000709124028091250290912602A7019601A8
:101160000E945F094AE00E949B0387E891E00E9489
:10117000E90360911F0270912002809121029091F9
:101180002202A50194010E945F09CA01B9014AE047
:101190000E949B0360911F027091200280912102A6
:1011A00090912202A70196010E945F09CA01B9012C
:1011B000A70196010E945F094AE00E949B0360918B
:1011C0001F02709120028091210290912202A701BA
:1011D00096010E945F094AE00E949B0384E090E030
:1011E0000E947C038823B1F1C1E080912F0290918D
:1011F0003002892B09F0C0E08C2F90E090933002F0
:1012000080932F026C2F8CE00E94DE0090E080E043
:101210000E944909C81729F06C2F90E080E00E94D5
:10122000510965E070E080E090E00E946201C091A9
:101230002F02D091300261E0C130D10509F060E0A9
:101240008BE00E94DE0061E0219709F460E08AE013
:101250000E94DE0065E070E080E090E00E946201A4
:101260000115110509F4AFCE0E940000ACCE60E07C
:101270008BE00E94DE0061E079CE61E0019709F029
:1012800060E08CE00E94DE000E94260487E791E087
:10129000BBCEF999FECF92BD81BDF89A992780B552
:1012A0000895262FF999FECF1FBA92BD81BD20BDAA
:1012B0000FB6F894FA9AF99A0FBE01960895A1E232
:1012C0001A2EAA1BBB1BFD010DC0AA1FBB1FEE1FC0
:1012D000FF1FA217B307E407F50720F0A21BB30B0B
:1012E000E40BF50B661F771F881F991F1A9469F787
:1012F00060957095809590959B01AC01BD01CF01E3
:101300000895EE0FFF1F0590F491E02D0994F894D5
:02131000FFCF0D
:101312000100004000140054000000000062023589
:1013220002790327022E022B02280200000000632A
:10133200049401790378034449474954414C4E4986
:10134200204D4A45524143002020494E542E2056FA
:1013520052454D454E41202000504F4B52454E497B
:10136200204D4A4552454E4A45002020204E4120FC
:101372005354415254004D4A4552454E4A45205617
:1013820052454D454E4100205652494A454D452051
:0A1392004F4452414445003A000068
:00000001FF
